:1000000000100020051200002D120000450F000016
:1000100000000000000000000000000000000000E0
:100020000000000000000000000000002D12000091
:1000300000000000000000002D1200002D12000042
:100040002D1200002D1200002D1200002D120000B4
:100050002D1200002D1200002D1200002D120000A4
:10006000AD0C00002D1200002D1200002D1200001A
:10007000150600002D1200002D1200002D120000A8
:100080002D1200002D1200002D1200002D12000074
:100090002D1200002D1200002D1200002D12000064
:1000A0002D1200002D1200002D1200002D12000054
:1000B0002D1200002D1200002D1200002D12000044
:1000C00010B5064C2378002B07D1054B002B02D02E
:1000D000044800E000BF0123237010BD7C00002015
:1000E00000000000F8260000084B10B5002B03D0DC
:1000F0000749084800E000BF07480368002B00D10B
:1001000010BD064B002BFBD09847F9E7000000001C
:1001100080000020F8260000780000200000000089
:10012000164B002B00D1144B9D46402292029A1A86
:10013000924600218B460F461348144A121A01F0CA
:1001400075F90F4B002B00D098470E4B002B00D0B9
:1001500098470020002104000D000D48002802D01F
:100160000C4800E000BF01F033F92000290000F046
:100170007FFD01F017F9C0460000080000100020C4
:1001800000000000000000007C000020780100203A
:10019000000000000000000010B5002307E0D41AA2
:1001A0000419013C247864B2CC540133DBB293428D
:1001B000F5D310BD70B584B005000E0010220021EB
:1001C000684601F033F9002410E00A21280001F00C
:1001D000DDF8FF2319400E4B5B5C6A461355013472
:1001E000E4B20A21280001F04BF80500092DECD8F3
:1001F000074B5B5D6A4613550134E2B23100684635
:10020000FFF7CAFF361900233370200004B070BD19
:100210006824000010B503009A0709D000229A56FE
:10022000002A01D00133F7E7181A80B210BD0B0085
:10023000191D1C68144AA218A243144C2242F6D07D
:100240000A1F127852B2002A12D0CA1E127852B275
:10025000002A10D08A1E127852B2002A0FD04A1EED
:10026000127852B2002AE2D1181A033080B2DDE7C8
:10027000181A80B2DAE7181A013080B2D6E7181AD5
:10028000023080B2D2E7C046FFFEFEFE8080808052
:1002900010B50400FFF7BEFFC1B2013900200123F1
:1002A00007E0625C303A5A4380189A00D218530033
:1002B00001390029F5DA10BD70B5050004002134BC
:1002C0003A222023C2541C33C05C2100FFF772FF86
:1002D00020182C2303703D22AA56427083701233DB
:1002E000EB56C3702A2303710023437170BD0023B2
:1002F00006E0C21800215171203211700133DBB2C7
:10030000132BF6D9002343767047437E013BC9186F
:100310000B782A2B03D0002B0ED00139F8E70023ED
:100320000B7001390B783A2B03D0002B04D0013924
:10033000F8E70131C161393B1800704770B504001E
:10034000411DFFF7E2FF00282BD000224423E25496
:100350001649E06901F0B8F9FFF79AFFC0B23C23F3
:10036000E054134B1B78984203D02000FFF7BFFFE7
:100370001AE00E4D2900002001F0A6F902783D2375
:10038000E2542900002001F09FF902783E23E25454
:100390002900002001F098F9FFF77AFF3F23E0548D
:1003A00002E02000FFF7A3FF70BDC04674240000E8
:1003B000B500002070B504000D000379012B16D0A4
:1003C000002B04D0022B25D0032B28D070BD442352
:1003D000C35C002BFAD0FFF7B1FF2000636B984796
:1003E000F535FF35256400224423E254EEE744232B
:1003F000C35C002B05D1036C9942E7D90323037139
:10040000E4E7FFF79BFF2000636B9847002244233B
:10041000E254DBE7FFF76BFF00232371D6E7FFF71A
:1004200066FF00232371D1E770B50400064D012358
:100430002B6001002031006800F0DAF800232B6007
:100440003D22A35470BDC0469C48004010B5012910
:1004500002D08368984710BD43689847FBE70000C7
:10046000002909D0042906D10023084A1360084A4C
:100470001360084A136070470122044B1A6000237E
:10048000034A1360034A1360F5E7C046DC480040A6
:10049000884800408448004010B504008378002B51
:1004A0000FD08388002B0DD04378002B12D004216D
:1004B000FFF7D6FF6378012253406370A388643B43
:1004C000A38010BD0178FFF7CBFFA3780122534032
:1004D000A370F6E70178FFF7C3FF01236370EDE730
:1004E00010B50400C36898476168002906D0044825
:1004F0004843044B591A00F0C3FEE06110BDC046EA
:10050000102700008813000010B5242000F084FF9D
:100510000400002CFDD0200000F020F80023E3822E
:10052000643323830133A382014B2362200010BD77
:10053000E104000010B504000268136850681B1A3B
:10054000207A434303485843034900F099FE606012
:1005500010BDC04688130000FF030000044B036079
:10056000142252425A6001230372024BC360704747
:10057000B80000203505000010B5184C200000F030
:1005800035FC0022C0218904200000F0E5FB802317
:10059000DB055A6C1202120A902109050A435A64BB
:1005A0005A6D0F491140802212030A435A650021F7
:1005B0008022520099500B4800F000FD0A4CE121C6
:1005C0004902200000F076FD80225201074B1A609C
:1005D0000121200000F06AFD10BDC046103D805F83
:1005E000FFFF00FF100000040000074000E100E0F2
:1005F00010B50C000B78002B00D110BD080001F0E5
:100600005BF802002100024800F0C2FDF5E7C04699
:100610000000074010B5094BDB69DB0509D5074B26
:100620001B68DBB2064A13705268002A01D0002B07
:1006300000D110BD02489047FBE7C04600000740CC
:10064000AC00002010B58022D20580235B00592128
:10065000D1504339D1507231D150D358002BF2D000
:10066000042000F0BBFB102000F0DCFB0021072081
:1006700000F0ECFB1122014B5A6310BD0002004058
:1006800010B5334C200000F0B1FB0022E021C9007E
:10069000200000F061FBFA229200802109052D481C
:1006A00000F0E6FC2C4B1A6832235A432B4B5A605D
:1006B00000229A6005321A60284B1B68DB03FBD5C9
:1006C000264B00211960234804688022120422432B
:1006D0000260214A1268322042435A609960052222
:1006E0001A601E4B1B68DB03FBD51C4B00211960F5
:1006F000184804688022920522430260164A126854
:10070000322042435A60996005221A60134B1B68DD
:10071000DB03FBD5114B0021196080204000104AFB
:1007200010600C4804688022D205224302600A4A05
:100730001268322042435A60996005221A60074BC2
:100740001B68DB03FBD50022044B1A6010BDC046BA
:100750000200805E000005400400002010E000E080
:1007600000E100E010B5FFF76DFFFFF789FF10BD56
:1007700010B501228021024800F08EFB10BDC0465A
:100780008040004010B501228021074800F084FB22
:10079000064C01220421200000F07EFB01220221F0
:1007A000200000F079FB10BDC040004080400040B8
:1007B00010B501220421024800F06EFB10BDC046B6
:1007C0000040004010B500224021024800F064FBC8
:1007D00010BDC046C040004010B5012202210248B1
:1007E00000F05AFB10BDC046C040004010B50122C9
:1007F0000121024800F050FB10BDC046804000407F
:1008000010B5FFF7B5FFFFF7BDFFFFF7D1FFFFF70B
:10081000D9FFFFF7E1FFFFF7E9FF10BD704710B503
:10082000FFF7A0FFFFF7ECFFFFF7F8FFFFF7A4FECD
:1008300000F0FEFC002180235B008022D205D15015
:1008400010BD0000024B186843425841C0B27047C7
:10085000D84800400123024A136003707047C04625
:10086000804800400023024A136003707047C0466E
:10087000804800400123024A136003707047C0465D
:10088000084800400023024A136003707047C046C6
:10089000084800400123024A136003707047C046B5
:1008A000C44800400023024A136003707047C046EA
:1008B000C44800400023044A1360044A1360012224
:1008C000034B1A607047C046DC480040884800402F
:1008D000844800400122044B1A600023034A13603D
:1008E000034A13607047C046DC4800408848004017
:1008F0008448004070B5040021343A222023C254B9
:100900001E4B18782100FFF755FC20182C2404708A
:100910001B4E3D23F3564370C51C8470194B187849
:10092000434258412900FFF745FC2818451C047034
:100930005C23F05C2900FFF73DFC2818451C04707F
:100940007C23F05C2900FFF735FC2818451C047057
:100950006C23F05C2900FFF72DFC2818451C04705F
:100960009C23F3581A20185E2900FFF723FC2D184A
:100970002A232B7000236B7070BDC046B500002089
:10098000C4000020B400002010B501221021164838
:1009900000F082FA00210EE00133144A9342FBD9A1
:1009A0000122134B1A60002300E00133114A9342E5
:1009B000FBD90131C9B2022904D800220C4B1A60BC
:1009C0000023EAE70C4B1A780C4B1B689A4206D0BE
:1009D0000B4B0121A22299540A4902329952074B2A
:1009E0001A68054B1A7010BD804000403F0D03008F
:1009F000904800409F860100B4000020D848004085
:100A0000C40000208813000010B50400FFF77CFD2F
:100A10009C23E0500E4B03610E4B23650E4BA365E8
:100A20000E4A8023E2500E4A0433E2500D4B2366F7
:100A30000D4B63660D4B23670D4B63670D4A902387
:100A4000E2500D4A0433E2500C4BA36310BDC04684
:100A500078240000890900004508000055080000BE
:100A60006508000075080000850800009508000072
:100A7000A5080000B5080000D5080000F508000032
:100A8000704700000C4B1A782A2A09D00B4B5B7E6A
:100A9000132B01D8002A08D10022084B5A76704740
:100AA000012044230549C854F0E70449C81842719D
:100AB00001334B76F3E7C046AC000020C4000020B1
:100AC00010B5144B1B78002B14D07C23124AD35C36
:100AD000012B18D010480122A023C254A0300121BC
:100AE000FFF7BEFC0C4B0121A22299540B490232A4
:100AF000995210BD08480022A033C254A0300021F2
:100B0000FFF7AEFCEEE710008333D3587C309847F4
:100B1000E0E7C046B4000020C400002088130000B5
:100B200010B50400154B1A78154B1B689A421BD060
:100B3000144A138801339BB21380FA225200934265
:100B400008D06C23E35C012B03D05C23E35C002B17
:100B50000ED110BD00220B4B1A80094B1A68074BAF
:100B60001A70FFF7ADFFECE70022064B1A80E8E7AA
:100B700020005C30636E9847EBE7C046B40000206D
:100B8000D84800409800002070B504003D23C35CA5
:100B9000572B02D0522B55D070BD193BC35C433B41
:100BA000DAB20B2A1BD893002A4AD3589F462A4D03
:100BB0008423EB5828007C30984728006C306B6FFA
:100BC000984728005C306B6E984728004C302B6D9E
:100BD00098470122A223EA54204A0233EA52200015
:100BE000FFF76AFB012323712000FFF71DFCD3E709
:100BF0003F23C15C1A48FFF729FCF0E73F23C15CA3
:100C0000184D2800FFF722FC6C3D6C23E95C28009E
:100C10005C30FFF71BFCE2E73F23C15C1248FFF7A3
:100C200015FCDCE73F23C15C032903D00F48FFF725
:100C300017FCD4E7084B0239A22299540749023223
:100C40009952A9E7836B98472000FFF7EDFB022339
:100C50002371A1E744250000C40000208813000090
:100C6000400100203001002020010020640100200C
:100C700010B5FFF7D4FD084C2000FFF7C5FE074B69
:100C80002360002262762271054A6263054A5A6037
:100C90000522054B1A70FEE7C4000020AC000020BE
:100CA000890B0000850A0000B500002070B5134EC6
:100CB0003368591C3160124C2388013B2380114B4F
:100CC0001A68114B1A70114D2800FFF773FB2800AA
:100CD000FFF726FF31682800FFF7D2FE2388002B9C
:100CE00003D001220A4B9A6070BD044B1968094871
:100CF000FFF7D2FB6422024B1A80F2E79C0000202F
:100D000000000020D8480040B6000020C4000020A9
:100D1000000005406401002010B500F089FA044B82
:100D20005A6B07231340034A1068D84010BDC046D1
:100D3000000200400800002010B500F079FA044BD2
:100D40005A6B120907231340024A1068D84010BD9D
:100D50000002004008000020F0B589B004AB1C4C34
:100D6000E0CCE0C31D0023682B60002300930193B7
:100D7000029310330393830AFF24234010D0850C81
:100D8000FC3C2C40A4006D466559124CA4466544B9
:100D90002C6847091F263E40B3409C4322432A60EB
:100DA000430E0722134010D0040F043A2240920051
:100DB00004AC1459084A944664442268000D1F2567
:100DC000284083409A431143216009B0F0BDC046DA
:100DD000742500002002004010020040024A1368FF
:100DE000184310607047C0460002004070B584B0E0
:100DF00001AA0A4B1033110070CB70C1830F9B0006
:100E00009B58074A944663441A681F2108401E39BC
:100E100081400A431A6004B070BDC04674250000CA
:100E200004020040074A084B1B6D0340984204D05F
:100E3000531E002A03DD1A00F5E701207047002049
:100E4000FCE7C04640BF0F0000020040F8B50600B6
:100E50000F00104C236D10251D40236804221343FE
:100E600023601020FFF7DEFF23690722134323616D
:100E7000216A0F239943394321622069904330430B
:100E8000206100F0D5F9002D03D1236804218B43A4
:100E90002360F8BD0002004070B5002300E001337C
:100EA0000F2B0DD801249C402142F8D004685E002D
:100EB0000325B540AC431500B5402C430460EEE774
:100EC00070BD000010B504000168104800F05EFB22
:100ED00061680F4800F05AFBA1680E4800F056FB0D
:100EE000E1680D4800F052FB21690C4800F04EFB10
:100EF00061690B4800F04AFBA1690A4800F046FB13
:100F0000E169094800F042FB10BDC046A825000079
:100F1000B4250000C0250000CC250000D825000025
:100F2000E4250000F0250000FC25000010B50400B9
:100F3000034800F0A5FB2000FFF7C4FFFEE7C04612
:100F400090250000064B04207146084203D0EFF3C1
:100F500009807146EAE7EFF30880E7E7FEE7C0465D
:100F60002D0F000010B5130005E0002008560C4BB3
:100F70001860230001315C1E002B0FD0084B9B69C9
:100F80001B02FBD40023CB560A2BEED10D20044BC1
:100F90001860034B9B691B02FBD4E6E7100010BDF1
:100FA00000000740044B9B695B04FBD4024B1B68A9
:100FB0000B7001207047C04600000740030E074A2F
:100FC0009446634419680002000A012282401143DA
:100FD00019601968914319607047C04608000040C5
:100FE00030B589B01D4C6B46220032CA32C332CABA
:100FF00032C312CA12C31A4B984211D0194B9842ED
:1010000014D0194B984217D0184B5A69120D072368
:101010001340022B16D09B006A46985809B030BD89
:10102000124B5A69120A07231340F2E70F4B5A6911
:10103000120B07231340ECE70C4B5A69120C0723E1
:101040001340E6E7064B984205D0064B984202D083
:10105000FFF772FEE2E7FFF75FFEDFE7082600001A
:10106000000005402000054000100540000200403F
:10107000F8B506000F001400FFF7B2FF05004308A3
:10108000A34208D9210000F0FBF8040E05D0611C32
:1010900000F0F6F801E0002402202743376070607A
:1010A000611C4143280000F0EBF8F8BD4368194388
:1010B00041607047F0B587B004000E002E486B46C3
:1010C000020023CA23C323CA23C32C4B9C4226D02D
:1010D0002B4B9C422DD00027002500232363033394
:1010E000E360A368274A1340A360042D2BD0002E91
:1010F00013D0AD006B46E858791C00F0C1F805002C
:1011000070082818310000F0BBF802381E4B9842D6
:1011100028D8C0239B051843606207B0F0BD1B4B65
:101120005D692D0E07221540196A090A0F270F4025
:10113000D3E7164B5D692D0F07221540196A090B7D
:101140000F270F40C9E70D4B9C4205D0FFF7F4FD78
:10115000AB006A469850CAE7FFF7DEFDAB006A466F
:101160009850C4E7F0002818310000F089F8000911
:1011700002386062D1E7C046282600000000074020
:10118000001007400FFFF0FFFFFF000000020040CB
:1011900070B50026002504E0012E0ED04B5D0360E3
:1011A0000135954209D0002384692402F4D5013326
:1011B000034CA342F8D90126EEE7280070BDC046D3
:1011C000FFFFFF3F10B500F0E7F858230360012050
:1011D000404210BD10B500F0DFF858230360012035
:1011E000404210BD10B500F0D7F85823036000202E
:1011F00010BD10B500F0D0F8582303600120404224
:1012000010BD00000649074A074B9B1A03DD043B4B
:10121000C858D050FBDC00F031F8FEF781FF000029
:1012200004270000000000207C000020FEE7C046EC
:1012300010B50C4A116907230B409B000A49585806
:10124000136A0F211940013100F01AF8074B18609A
:10125000074B9C466044074900F012F8064B1860A3
:1012600010BDC046000200404026000008000020DB
:1012700020A1070040420F0004000020704700003A
:10128000002243088B4274D303098B425FD3030AC5
:101290008B4244D3030B8B4228D3030C8B420DD3D8
:1012A000FF22090212BA030C8B4202D31212090266
:1012B00065D0030B8B4219D300E0090AC30B8B42A4
:1012C00001D3CB03C01A5241830B8B4201D38B0352
:1012D000C01A5241430B8B4201D34B03C01A5241F7
:1012E000030B8B4201D30B03C01A5241C30A8B423A
:1012F00001D3CB02C01A5241830A8B4201D38B0225
:10130000C01A5241430A8B4201D34B02C01A5241C8
:10131000030A8B4201D30B02C01A5241CDD2C3093A
:101320008B4201D3CB01C01A524183098B4201D3B6
:101330008B01C01A524143098B4201D34B01C01AA1
:10134000524103098B4201D30B01C01A5241C30819
:101350008B4201D3CB00C01A524183088B4201D388
:101360008B00C01A524143088B4201D34B00C01A74
:101370005241411A00D20146524110467047FFE7E0
:1013800001B5002000F006F802BDC0460029F7D0E4
:1013900076E770477047C046014B18687047C046F3
:1013A0000C000020084B10B50400002B02D00021D7
:1013B00000E000BF054B1868836A002B00D09847F7
:1013C000200001F043F8C046000000006026000045
:1013D00070B500260C4D0D4C641BA410A64209D11B
:1013E000002601F035F80A4D0A4C641BA410A642F1
:1013F00005D170BDB300EB5898470136EEE7B30056
:10140000EB5898470136F2E770000020700000208A
:10141000700000207400002010B5034B0100186814
:1014200000F056F810BDC0460C00002003008218E2
:10143000934200D1704719700133F9E770B5050088
:10144000002910D00C1F2368002B00DAE4182800B4
:1014500000F056FC1D4A1368002B05D16360146030
:10146000280000F04EFC70BDA34209D92168601825
:101470008342F3D118685B6841182160EEE71300DE
:101480005A68002A01D0A242F9D919685818A04216
:101490000BD120680918581819608242E0D11068F1
:1014A0005268411819605A60DAE7A04202D90C2349
:1014B0002B60D5E721686018824203D1106852681A
:1014C0004118216062605C60CAE7C046A00000204D
:1014D000032370B5CD1C9D43083506000C2D1ED28C
:1014E0000C25A9421DD8300000F00AFC254A1468DA
:1014F0002100002919D1244C2368002B03D130008E
:1015000000F0C8F820602900300000F0C3F8431C48
:101510002CD10C233000336000F0F3FB03E0002DEE
:10152000DFDA0C233360002070BD0B685B1B1AD41C
:101530000B2B03D90B60CC18256003E08C420ED135
:1015400063681360300000F0DCFB200007220B30E2
:10155000231D9043C31AE7D05A42E250E4E74B6898
:1015600063600C00EEE70C004968C2E70323C41C6B
:101570009C43A042E0D0211A300000F08BF8431CBD
:10158000DAD1C6E7A0000020A40000200FB40B4B66
:1015900013B51C68002C05D0A369002B02D12000D4
:1015A00000F0ACFA05AB049AA1682000019300F0AA
:1015B000D1FB16BC08BC04B01847C0460C00002084
:1015C00070B505000E00002804D08369002B01D1FE
:1015D00000F094FAAB69AC68002B02D1280000F04F
:1015E0008DFA244B9C420FD16C68A3891B0702D54E
:1015F0002369002B20D12100280000F011F90028D8
:101600001AD00120404270BD1B4B9C4201D1AC68F6
:10161000EBE71A4B9C42E8D1EC68E6E7013B013668
:10162000A360002B04DAA269934216DB0A2914D0C6
:1016300023685A1C226019703178A3680029EDD103
:10164000013BA360002B0FDA22000A31280000F0D2
:1016500091F8431CD5D00A20D5E72200280000F0DD
:1016600089F8431CE8D1CCE70A2023685A1C226081
:101670001870C8E784260000A42600006426000035
:1016800010B5034B01001868FFF79AFF10BDC04664
:101690000C000020002370B5064C050008002360F4
:1016A00000F0C6FE431C03D12368002B00D02B6042
:1016B00070BDC046740100200023C25C0133002AC3
:1016C000FBD1581E70470000F8B5124B06001D688C
:1016D0000F00AC6D002C16D15020FFF79DFEA865C1
:1016E000046044608460C460046144618461846215
:1016F000C462046344638463C463046444648464B0
:10170000C46404774462AA6D39003000012300F0FC
:1017100003F8F8BD0C000020F0B5002804D11068D3
:10172000002801D1F0BD20000E000578441C377858
:10173000002F04D1002D10D115602800F2E70136EA
:10174000BD42F4D1002BEED114600370EAE7330000
:101750000EE001351C00002F02D10D002678631C1D
:101760002F78BE42F5D1002EF1D00024591E0C7006
:101770001360D7E7F8B505000E001400002804D068
:101780008369002B01D100F0B9F9224B9C422DD185
:101790006C68A369A360A3891B0731D52369002B5B
:1017A0002ED023682269F7B2981A6369F6B298427C
:1017B00005DB2100280000F033F9002826D1A368BA
:1017C0000130013BA36023685A1C22601F706369CB
:1017D000984204D0A389DB071AD50A2E18D121001C
:1017E000280000F01DF9002812D00FE00A4B9C429F
:1017F00001D1AC68CDE7094B9C42CAD1EC68C8E77F
:101800002100280000F00CF80028CAD001267642FA
:101810003000F8BD84260000A426000064260000E5
:10182000364B70B51D6806000C00002D05D0AB6965
:10183000002B02D1280000F061F9314B9C420FD1FE
:101840006C680C23E25E93B219072DD4D90611D42B
:1018500009230120336037331343A381404270BD15
:10186000284B9C4201D1AC68EBE7274B9C42E8D166
:10187000EC68E6E75B0713D5616B002908D023000D
:101880004433994202D03000FFF7D8FD0023636350
:101890002422A3899343A3810023636023692360E7
:1018A0000823A2891343A3812369002B0BD1A02114
:1018B0008022A389890092000B40934203D021002B
:1018C000300000F0D9F90123A289134011D0002380
:1018D000A36063695B42A361002023698342BED198
:1018E0000C23E25E1306BAD540231343A3810138CB
:1018F000B5E7920700D46369A360EDE70C00002010
:1019000084260000A426000064260000F7B58A891A
:1019100005000C00130760D44B68002B04DC0B6C33
:10192000002B01DC0020FEBDE76A002FFAD0002367
:101930002E682B6080235B011A4034D0606DA38930
:101940005B0706D56368C01A636B002B01D0236C5C
:10195000C01A0200216A00232800E76AB847A1895B
:10196000431C06D12B681D2B31D82C4ADA40D307F3
:101970002DD50023636023692360CB0405D5431C68
:1019800002D12B68002B00D16065616B2E600029AD
:10199000C8D023004433994202D02800FFF74EFDFF
:1019A00000206063BFE70123216A2800B847431C79
:1019B000C5D12B68002BC2D01D2B01D0162B01D115
:1019C0002E60AFE74023A2891343A381ABE74023F6
:1019D0000B430120A3814042A5E70F69002FA1D04E
:1019E0000B680F60DB1B01930023920700D14B694A
:1019F000A360019B002B00DC94E7019B3A00216A65
:101A00002800A66AB047002803DC4023A2891343BC
:101A1000DFE7019B3F181B1A0193EAE70100402012
:101A20000B6970B505000C00002B01D1002070BDC2
:101A3000002804D08369002B01D100F05FF80B4B24
:101A40009C4209D16C680C22A35E002BEED02100D1
:101A50002800FFF75BFFEAE7054B9C4201D1AC6829
:101A6000F1E7044B9C42EED1EC68ECE784260000E1
:101A7000A42600006426000010B5024900F0B2F868
:101A800010BDC046211A0000002310B504000360F9
:101A90004360836081814366C281036143618361E6
:101AA000190008225C30FFF7C1FC054B2462636219
:101AB000044BA362044BE362044B236310BDC04696
:101AC0009D220000C5220000FD2200002923000005
:101AD00070B568254A1E55430E0029007431FFF782
:101AE000F7FC041E08D000212A00016046600C307B
:101AF000A0606832FFF79AFC200070BD836913B5BF
:101B00000400002B28D18364C3640365134B144A7B
:101B10001B6882620193984201D1012383612000F6
:101B200000F020F86060200000F01CF8A0602000A9
:101B300000F018F80022E06004216068FFF7A4FFBD
:101B400001220921A068FFF79FFF02221221E0680D
:101B5000FFF79AFF0123A36113BDC0466026000072
:101B6000791A0000F8B51E4B07001E68B369002BF8
:101B700002D13000FFF7C2FF4836B4687368013BFA
:101B800004D53368002B07D03668F6E70C22A55E33
:101B9000002D0DD06834F2E704213800FFF798FFDC
:101BA00030600028F0D10C2304003B602000F8BD19
:101BB000012320005B42E3810233A3816566256037
:101BC000A560656025616561A561082229005C301A
:101BD000FFF72CFC6563A563A564E564E6E7C046F2
:101BE00060260000F7B50400070000260191483484
:101BF000002C01D13000FEBD6368A5680093009BF6
:101C0000013B009301D52468F2E7AB89012B08D989
:101C10000E22AB5E013304D029003800019B9847A7
:101C200006436835EBE7000070B50E001D000E237B
:101C3000C95E90B01400002907DA00232B60B38935
:101C40001B0611D48023DB000FE001AA00F098FBF3
:101C50000028F2DBF022029B12021340054A9B1877
:101C60005A4253412B60EDE740230020236010B01F
:101C700070BDC04600E0FFFFF7B502268B89050066
:101C80000C00334206D02300473323602361012335
:101C90006361F7BD01AB6A46FFF7C6FF0099070015
:101CA0002800FFF715FC002808D10C22A35E9A0536
:101CB000EFD4032293431E43A681E4E70F4BAB62AC
:101CC0008023A28920601343A381009B206163616C
:101CD000019B002B0DD00E23E15E280000F062FB7B
:101CE000002806D00322A38993431A00012313433B
:101CF000A381A0893843A081CBE7C046791A0000B0
:101D000070477047936810B5013B9360002B05DA6C
:101D10009469A34208DBCBB20A2B05D01368581C88
:101D200010601970C8B210BDFFF724FDFBE7F8B5CD
:101D300006000F001400D518AC4201D1002007E0C6
:101D400021783A003000FFF7DDFF0134431CF3D166
:101D5000F8BD0000F0B59FB006000F001400059319
:101D6000002804D08369002B01D1FFF7C7FE7F4B09
:101D70009F425CD17768BB891B0762D53B69002B0A
:101D80005FD0002306AD6B6120336B761033AB76EA
:101D90000294029C2378002B5DD1029BE31A0493EA
:101DA0000DD0049B029A39003000FFF7C0FF431C9E
:101DB00000D1CCE06A69049B944663446B6123784C
:101DC000002B00D1C3E00122002352426A6002A925
:101DD0005432521801342B60EB60AB601370AB656A
:101DE00021780522624800F003FB631C9C46002812
:101DF00035D12968CB0604D5532302AA20309B187D
:101E000018700B0704D553232B2002AA9B181870B7
:101E100023782A2B2CD000200A21099B2278303AE3
:101E2000092A00D86BE000282AD0099328E0514BFA
:101E30009F4201D1B7689EE74F4B9F429BD1F76805
:101E400099E739003000FFF7EBFC002899D001201A
:101E500040421FB0F0BD252B9FD001349AE7444B80
:101E60002968C01A012383400B432B606446B7E7FF
:101E7000059B181D1B680590002B3ADB09936446EF
:101E800023782E2B0BD16378621C2A2B3FD1059B24
:101E900002341A1D1B680592002B35DB079321784D
:101EA0000322364800F0A4FA002807D0334B2A68F2
:101EB000C01A4023834013432B6001342178631CF4
:101EC00006222F480293297600F092FA002844D087
:101ED0002C4B002B2FD12968059B0722C90528D53B
:101EE0009B189343083305936B69039A9B186B61A6
:101EF0004FE75B42EB6002230B432B60BFE74B4392
:101F000001349B18012089E701235B42C6E70023C7
:101F100014000A201A006B6021783039092903D98E
:101F2000002BBCD00792BAE7424301345218012378
:101F3000F2E70733D5E705AB00933A00124B2900CF
:101F4000300000E000BF0390039B0133CCD1BB897C
:101F50005B0600D57BE70B987BE705AB00933A0067
:101F6000094B2900300000F07FF8ECE784260000E0
:101F7000C4260000A426000064260000CA26000033
:101F8000CE260000000000002F1D0000F7B5150050
:101F900001938A680B6900900C00934200DA1300E9
:101FA00022002B6043321278002A01D001332B60CB
:101FB00023689B0602D52B6802332B600627236813
:101FC0001F4027D0230043331B785A1E93412268B9
:101FD000920630D42200019943320098089EB047FF
:101FE000431C25D0062320682A68E16803400025A9
:101FF000042B03D18D1AEB43DB171D40A368226924
:10200000934201DD9B1AED180027BD4220D100202C
:1020100010E00137E3682A689B1A9F42D2DA220057
:102020000123193201990098089EB047431CF0D152
:1020300001204042FEBD3020E118433108702100EC
:102040005A1C45310978A218433202331170C1E796
:10205000220001231A3201990098089EB047431CC0
:10206000E6D00137D1E70000F0B58BB006920A0048
:1020700043320793059004920A7E0C00109B6E2A4F
:1020800000D18FE017D8632A2CD008D8002A00D1BD
:1020900099E0582A54D026004236327029E0642A4A
:1020A00001D0692AF7D121681A68080623D5111DC5
:1020B0001960156825E0732A00D188E008D86F2AD6
:1020C00029D0702AE7D1202209680A43226003E060
:1020D000752A20D0782ADED122007821453211706D
:1020E0006C4A30E00E001A684236111D1960136800
:1020F0003370012379E04906D9D5111D19600023F9
:10210000D55E002D03DA2D23049A6D421370624BC5
:102110000A2703932FE020681968050603D5081DD8
:1021200018600D6805E04006F9D50D68081D1860B7
:10213000ADB2594B082703936F2A18D00A2716E02F
:1021400045310A70544A03921A682168101D1860BC
:102150001568080622D5CB0702D520231943216034
:102160001027002D03D1202322689A4322602300E8
:10217000002243331A706368A360002B5CDB0422E7
:10218000216891432160002D58D1049E002B64D01A
:102190002600039B42361B7833705EE04806DAD592
:1021A000ADB2D8E709681A68080605D5111D19608F
:1021B000136862691A6006E04906F7D5111D1960B7
:1021C0001368A28A1A800023049E236154E01A68CF
:1021D000111D1960166800216268300000F008F9CE
:1021E000002801D0801B6060636823610023049A8B
:1021F000137041E02369320006990598079DA847AE
:10220000431C43D0236800259B070FD4099BE0683B
:1022100098423DDA18003BE022000123193206996A
:102220000598079EB047431C30D00135E368099AF2
:102230009B1A9D42F0DBE9E7002DA9D0049E2800FF
:102240003900FFF7A3F8039B013E5B5C2800337065
:102250003900FFF715F8051EF1D1082F09D12368C1
:10226000DB0706D563682269934202DC3023013E16
:102270003370049B9B1B2361079B09AA00932100D9
:10228000069B0598FFF782FE431CB3D10120404214
:102290000BB0F0BDE6260000D526000070B50C009E
:1022A0000E25495F00F0B0F8002803DB636D1B18B2
:1022B000636570BDA389024A1340A381F9E7C04654
:1022C000FFEFFFFFF8B51F008B8905000C0016001B
:1022D000DB0505D50E23C95E0022022300F074F849
:1022E000A389054A28001340A38132000E23E15E32
:1022F0003B0000F01FF8F8BDFFEFFFFF70B50C00CA
:102300000E25495F00F060F8A389421C03D1054AFD
:102310001340A38170BD802252011343A3816065E5
:10232000F8E7C046FFEFFFFF10B50E23C95E00F0CF
:1023300015F810BD70B50500080011000022064C0C
:1023400022601A00FEF70EFE431C03D12368002B07
:1023500000D02B6070BDC04674010020002370B512
:10236000064C050008002360FEF72CFF431C03D138
:102370002368002B00D02B6070BDC0467401002084
:10238000002370B5064C0500080011002360FEF71D
:1023900021FF431C03D12368002B00D02B6070BDAC
:1023A00074010020002370B5064C0500080023606E
:1023B000FEF718FF431C03D12368002B00D02B60CD
:1023C00070BDC0467401002070B505000800110002
:1023D0000022064C22601A00FEF70BFF431C03D1BB
:1023E0002368002B00D02B6070BDC0467401002014
:1023F000C9B28218904201D10020704703788B4205
:10240000FBD00130F6E7000070B5050008001100B0
:102410000022064C22601A00FEF7C4FD431C03D1C3
:102420002368002B00D02B6070BDC04674010020D3
:10243000044A1368002B03D0181810601800704766
:10244000014BF9E7A800002078010020FEE7C04614
:10245000F8B5C046F8BC08BC9E467047F8B5C04603
:10246000F8BC08BC9E4670473031323334353637BD
:10247000383900002C0000006184927D28771D719E
:102480006B6B0C66FB60335CAF576C53644F964BC1
:10249000FC4794445B414F3E6B3BAF381736A33348
:1024A0004E31182F002D022B1E2953279E25FF2366
:1024B0007522FE20991F461E021DCF1BAA1A9219D3
:1024C00088188A179916B215D61404143B137B1278
:1024D000C41116116F10CF0F360FA40E190E930DE5
:1024E000130D990C230CB30B470BE00A7D0A1E0A4F
:1024F000C3096C091909C8087B083108EA07A6074F
:1025000064072507E906AE06760641060D06DB05DB
:10251000AB057D0550052605FC04D504AE048A04F0
:102520006604440423040304E403C603AA038E03DD
:1025300074035A03410329031203FB02E602D1028A
:10254000BC020000FC0B0000AE0B0000DE0B000024
:10255000180C0000DE0B0000DE0B0000DE0B00009C
:10256000DE0B0000DE0B0000240C0000DE0B000080
:10257000F00B000000000000040000000800000054
:102580000C00000000000000040000000800000033
:10259000496E2048617264204661756C7420486100
:1025A0006E646C6572000000723020203D2030782F
:1025B00025780A00723120203D20307825780A00E5
:1025C000723220203D20307825780A007233202096
:1025D0003D20307825780A00723132203D20307855
:1025E00025780A006C7220203D20307825780A007A
:1025F000706320203D20307825780A0070737220A7
:102600003D20307825780A00001BB70000800000CC
:102610000000000000000000000000000096000024
:1026200000000000006CDC02001BB700000000008E
:1026300000800000006CDC0200000000009600003A
:10264000001BB700008000000000000000960000A2
:10265000000000000000000000000000006CDC0230
:10266000100000200000000000000000000000003A
:10267000000000000000000000000000000000005A
:10268000000000000000000000000000000000004A
:10269000000000000000000000000000000000003A
:1026A000000000000000000000000000000000002A
:1026B000000000000000000000000000000000001A
:1026C00000000000232D302B2000686C4C00656654
:1026D0006745464700303132333435363738394173
:1026E0004243444546003031323334353637383989
:0C26F00061626364656600000000000089
:0826FC0024DAFF7F0100000059
:10270400F401000030000000006CDC021000002026
:102714000000000084260000A426000064260000B7
:1027240000000000000000000000000000000000A5
:102734000000000000000000000000000000000095
:102744000000000000000000000000000000000085
:102754000000000000000000000000000000000075
:102764000000000000000000000000000000000065
:0C277400E9000000C100000000000000AF
:0400000300001205E2
:00000001FF
